:100000000C9434000C9449000C9449000C94490061
:100010000C9449000C9449000C9449000C9449003C
:100020000C9449000C9449000C9449000C9449002C
:100030000C9449000C9449000C9449000C9449001C
:100040000C9449000C9449000C9449000C9449000C
:100050000C9449000C9449000C9449000C944900FC
:100060000C9449000C94490011241FBECFEFD8E036
:10007000DEBFCDBF11E0A0E0B1E0E2EDF4E002C0F0
:1000800005900D92A839B107D9F70E9418020C9477
:1000900067020C9400001092B90084E18093B800CC
:1000A00084E08093BC00089584EA8093BC00809132
:1000B000BC008823E4F7089584E98093BC0089EFAD
:1000C00090E00197F1F700C0000008958093BB0015
:1000D00084EC8093BC008091BC008823E4F70895F1
:1000E0000E9454008EE40E9466008FEF0E9466001A
:1000F00087E893E10197F1F700C0000084E30E94D4
:10010000660080E30E94660083EC99E00197F1F7B6
:1001100000C0000084E30E94660080E30E94660045
:1001200089EF90E00197F1F700C0000084E30E949E
:10013000660080E30E94660089EF90E00197F1F786
:1001400000C0000084E20E94660080E20E94660017
:1001500089EF90E00197F1F700C000000E945C0079
:100160000895CF93DF93C82F0E9454008EE40E941D
:100170006600DC2FD07F8D2F8C600E9466008D2F53
:1001800088600E94660080E1C89FE00111248C2FE6
:100190008C600E9466008C2F0E9466000E945C00AA
:1001A00083EF91E00197F1F700C0000083EF91E049
:1001B0000197F1F700C00000DF91CF9108950E94F0
:1001C0004B000E9470008CE20E94B1008CE00E9403
:1001D000B10086E00E94B10080E80E94B10008955D
:1001E000CF93DF93C82F0E9454008EE40E946600D4
:1001F000DC2FD07F8D2F8D600E9466008D2F89604F
:100200000E94660020E1C29FE00111248C2F8D60C6
:100210000E9466008C2F89600E9466000E945C002C
:100220008FED93E924E0815090402040E1F700C039
:1002300000008FED93E924E0815090402040E1F7E9
:1002400000C00000DF91CF910895E62FF0E0E1506B
:10025000FF4F9081890F81580E94B100089581E07D
:100260000E94B10083EF91E00197F1F700C0000018
:1002700008950F931F93CF93DF938C01C0E0D0E0DC
:1002800003C00E94F0002196F801EC0FFD1F808151
:100290008111F7CFDF91CF911F910F9108950F93A7
:1002A0001F93CF93883098F48B0190E00896880FC5
:1002B000880F880F0E94B100C0E007C0F801EC0F62
:1002C000F11D80810E94F000CF5FC830B8F3CF915C
:1002D0001F910F9108950F931F93CF93DF93CDB785
:1002E000DEB7E0970FB6F894DEBF0FBECDBF88E053
:1002F000E2E0F1E0DE01119601900D928A95E1F7BE
:100300008E01075F1F4F88E0F80111928A95E9F787
:1003100088E0EAE0F1E0DE01519601900D928A95C5
:10032000E1F788E0E2E1F1E0DE01599601900D92FB
:100330008A95E1F788E0EAE1F1E0DE01919601902B
:100340000D928A95E1F788E0E2E2F1E0DE0199960C
:1003500001900D928A95E1F7B80183E00E944F0168
:10036000BE01675D7F4F80E00E944F01BE01675D67
:100370007F4F82E00E944F01BE016F5F7F4F81E09F
:100380000E944F0183ED90E30197F1F700C0000058
:10039000BE016F5E7F4F81E00E944F01E3EDF0E30D
:1003A0003197F1F700C00000BE01675E7F4F81E02A
:1003B0000E944F0183ED90E30197F1F700C0000028
:1003C000BE016F5D7F4F81E00E944F01E3EDF0E3DE
:1003D0003197F1F700C00000B80184E00E944F019E
:1003E000B80185E00E944F01B80186E00E944F01EC
:1003F000B80187E00E944F0180EC0E94B10000E04C
:1004000010E008C0802F0E94F00080E20E94F000FF
:100410000F5F1F4F08301105ACF3E0960FB6F8944C
:10042000DEBF0FBECDBFDF91CF911F910F91089519
:100430000E9461020E944B000E94DF000E942F0177
:1004400061E081E00E9425018AE291E00E94390189
:1004500062E081E00E9425018CE391E00E94390175
:1004600087E190E00E94B10061E081E00E942501F7
:100470008DE491E00E94390162E081E00E94250153
:100480008EE591E00E94390161E081E00E94250142
:100490008EE691E00E94390162E081E00E94250130
:1004A0008FE791E00E9439010E942F0181E890E0DE
:1004B0000E94B1008EE891E00E9439010E946B0118
:1004C000FDCF8FEF84B98AB18C608AB90895F89412
:0204D000FFCF5C
:1004D20000400E0E041F15040A110D0D051F1A1EF1
:1004E2000A110E0E041F15150A110616141F050512
:1004F2000A110E1F1F0E0402040220486F79206D9C
:100502006F6E697461207365206465007370657233
:10051200746F20636F6E74656E746120006C6F205F
:100522006375616C206469736672757461006465D9
:100532002070616E20636F6E206167756100736960
:100542006E20656D626172676F20656C6C61002060
:1005520073616C746F20656E6F6A61646100204420
:08056200414E43494E470000E1
:04000003000000A851
:00000001FF
