S013000041637469766964616420322E7372656336
S11300000C9434000C9449000C9449000C9449005D
S11300100C9449000C9449000C9449000C94490038
S11300200C9449000C9449000C9449000C94490028
S11300300C9449000C9449000C9449000C94490018
S11300400C9449000C9449000C9449000C94490008
S11300500C9449000C9449000C9449000C944900F8
S11300600C9449000C94490011241FBECFEFD8E032
S1130070DEBFCDBF11E0A0E0B1E0E0E7F4E002C0F4
S113008005900D92AE39B107D9F70E9495010C94F1
S113009036020C9400001092B90084E18093B800F9
S11300A084E08093BC00089584EA8093BC0080912E
S11300B0BC008823E4F7089584E98093BC0089EFA9
S11300C090E00197F1F700C0000008958093BB0011
S11300D084EC8093BC008091BC008823E4F70895ED
S11300E00E9454008EE40E9466008FEF0E94660016
S11300F087E893E10197F1F700C0000084E30E94D0
S1130100660080E30E94660083EC99E00197F1F7B2
S113011000C0000084E30E94660080E30E94660041
S113012089EF90E00197F1F700C0000084E30E949A
S1130130660080E30E94660089EF90E00197F1F782
S113014000C0000084E20E94660080E20E94660013
S113015089EF90E00197F1F700C000000E945C0075
S11301600895CF93DF93C82F0E9454008EE40E9419
S11301706600DC2FD07F8D2F8C600E9466008D2F4F
S113018088600E94660080E1C89FE00111248C2FE2
S11301908C600E9466008C2F0E9466000E945C00A6
S11301A083EF91E00197F1F700C0000083EF91E045
S11301B00197F1F700C00000DF91CF9108950E94EC
S11301C04B000E9470008CE20E94B1008CE00E94FF
S11301D0B10086E00E94B10080E80E94B100089559
S11301E0CF93DF93C82F0E9454008EE40E946600D0
S11301F0DC2FD07F8D2F8D600E9466008D2F89604B
S11302000E94660020E1C29FE00111248C2F8D60C2
S11302100E9466008C2F89600E9466000E945C0028
S11302208FED93E924E0815090402040E1F700C035
S113023000008FED93E924E0815090402040E1F7E5
S113024000C00000DF91CF910895E62FF0E0E15067
S1130250FF4F9081890F81580E94B100089581E079
S11302600E94B10083EF91E00197F1F700C0000014
S113027008950F931F93CF93DF938C01C0E0D0E0D8
S113028003C00E94F0002196F801EC0FFD1F80814D
S11302908111F7CFDF91CF911F910F91089585B907
S11302A088B18E7F88B988B18D7F88B988B1846020
S11302B088B9000088B18B7F88B983EF91E00197FA
S11302C0F1F700C00000089585B988B1816088B94C
S11302D088B18D7F88B988B1846088B9000088B1FD
S11302E08B7F88B983EF91E00197F1F700C000009C
S11302F008950F931F93CF93883098F48B0190E067
S11303000896880F880F880F0E944F01C0E007C02D
S1130310F801EC0FF11D80810E946401CF5FC830A9
S1130320B8F3CF911F910F910895CF93DF93CDB779
S1130330DEB7A0970FB6F894DEBF0FBECDBF0E9404
S113034030020E944B000E94DF000E942F0161E0F6
S113035081E00E94250182E291E00E94390162E07D
S113036081E00E94250184E391E00E94390187E144
S113037090E00E94B10061E081E00E94250185E4E3
S113038091E00E94390162E081E00E94250186E546
S113039091E00E94390161E081E00E94250186E636
S11303A091E00E94390162E081E00E94250186E724
S11303B091E00E9439010E942F0186E891E00E9499
S11303C0390188E0E2E0F1E0DE01119601900D923E
S11303D08A95E1F788E0EAE0F1E0DE011996019000
S11303E00D928A95E1F788E0E2E1F1E0DE015196B1
S11303F001900D928A95E1F788E0EAE1F1E0DE01EF
S1130400599601900D928A95E1F70E94DF00BE0192
S11304106F5F7F4F80E00E947901BE01675F7F4F6D
S113042081E00E947901BE016F5E7F4F82E00E94ED
S11304307901BE01675E7F4F83E00E94790180E805
S11304400E944F0183E991E00E94390180EC0E94EF
S11304504F0180E00E94640180E20E946401FFCFAA
S11304608FEF84B98AB18C608AB90895F894FFCF6C
S113047000400D0D051F1A1E0A110E0E041F15153E
S11304800A110616141F05050A110E0E041F150481
S11304900A1120486F79206D6F6E6974612073654D
S11304A02064650073706572746F20636F6E746589
S11304B06E746120006C6F206375616C20646973D5
S11304C066727574610064652070616E20636F6E7E
S11304D020616775610073696E20656D6261726782
S11304E06F20656C6C00612073616C746F20656EA5
S11304F06F6A616461002043415247414E444F2E6C
S11105002E2E004C4F4144494E472E2E2E0005
S90300A854
