:100000000C9434000C9449000C9449000C94490061
:100010000C9449000C9449000C9449000C9449003C
:100020000C9449000C9449000C9449000C9449002C
:100030000C9449000C9449000C9449000C9449001C
:100040000C9449000C9449000C9449000C9449000C
:100050000C9449000C9449000C9449000C944900FC
:100060000C9449000C94490011241FBECFEFD8E036
:10007000DEBFCDBF11E0A0E0B1E0E4E5F4E002C0F6
:1000800005900D92A035B107D9F70E9481010C941B
:1000900028020C9400001092B90084E18093B8000B
:1000A00084E08093BC00089584EA8093BC00809132
:1000B000BC008823E4F7089584E98093BC0089EFAD
:1000C00090E00197F1F700C0000008958093BB0015
:1000D00084EC8093BC008091BC008823E4F70895F1
:1000E0000E9454008EE40E9466008FEF0E9466001A
:1000F00087E893E10197F1F700C0000084E30E94D4
:10010000660080E30E94660083EC99E00197F1F7B6
:1001100000C0000084E30E94660080E30E94660045
:1001200089EF90E00197F1F700C0000084E30E949E
:10013000660080E30E94660089EF90E00197F1F786
:1001400000C0000084E20E94660080E20E94660017
:1001500089EF90E00197F1F700C000000E945C0079
:100160000895CF93DF93C82F0E9454008EE40E941D
:100170006600DC2FD07F8D2F8C600E9466008D2F53
:1001800088600E94660080E1C89FE00111248C2FE6
:100190008C600E9466008C2F0E9466000E945C00AA
:1001A00083EF91E00197F1F700C0000083EF91E049
:1001B0000197F1F700C00000DF91CF9108950E94F0
:1001C0004B000E9470008CE20E94B1008CE00E9403
:1001D000B10086E00E94B10080E80E94B10008955D
:1001E000CF93DF93C82F0E9454008EE40E946600D4
:1001F000DC2FD07F8D2F8D600E9466008D2F89604F
:100200000E94660020E1C29FE00111248C2F8D60C6
:100210000E9466008C2F89600E9466000E945C002C
:100220008FED93E924E0815090402040E1F700C039
:1002300000008FED93E924E0815090402040E1F7E9
:1002400000C00000DF91CF9108950F931F93CF93CB
:10025000DF938C01C0E0D0E003C00E94F000219643
:10026000F801EC0FFD1F80818111F7CFDF91CF9155
:100270001F910F91089585B988B18E7F88B988B193
:100280008D7F88B988B1846088B9000088B18B7F80
:1002900088B983EF91E00197F1F700C0000008955D
:1002A00085B988B1816088B988B18D7F88B988B1F6
:1002B000846088B9000088B18B7F88B983EF91E0B2
:1002C0000197F1F700C0000008950F931F93CF939B
:1002D000883098F48B0190E00896880F880F880F7B
:1002E0000E943B01C0E007C0F801EC0FF11D8081C6
:1002F0000E945001CF5FC830B8F3CF911F910F918A
:100300000895CF93DF93CDB7DEB7C054D1090FB6B0
:10031000F894DEBF0FBECDBF88E0E0E0F1E0DE0183
:10032000119601900D928A95E1F788E0E8E0F1E0FE
:10033000DE01199601900D928A95E1F788E0E0E1DF
:10034000F1E0DE01519601900D928A95E1F788E087
:10035000E8E1F1E0DE01599601900D928A95E1F70E
:1003600088E0E0E2F1E0DE01919601900D928A953D
:10037000E1F788E0E8E2F1E0DE01999601900D9264
:100380008A95E1F788E0E0E3F1E0DE01D1960190A3
:100390000D928A95E1F788E0E8E3F1E0DE01D99675
:1003A00001900D928A95E1F70E94DF00BE016F5F18
:1003B0007F4F80E090E00E946501BE01675F7F4F44
:1003C00081E090E00E946501BE016F5E7F4F82E098
:1003D00090E00E946501BE01675E7F4F83E090E080
:1003E0000E946501BE016F5D7F4F84E090E00E9436
:1003F0006501BE01675D7F4F85E090E00E94650169
:10040000BE016F5C7F4F86E090E00E946501BE01F7
:10041000675C7F4F87E090E00E94650180E890E094
:100420000E943B0180E491E00E94250180EC90E075
:100430000E943B0110E009C0812F90E00E94500112
:1004400080E290E00E9450011F5F1830A8F3FFCFB8
:04045000F894FFCF4E
:100454000D0D051F1A1E0A11041F11111F1F1F1F46
:10046400040E0E0E1F0004000103071F1F070301E3
:1004740001030509090B1B180A0A1F11110E0404B4
:1004840000000A0004110E00000A1F1F0E040000E1
:10049400437573746F6D2063686172204C4344002C
:04000003000000A851
:00000001FF
